:02000002B0004C
:1040000000400B0016530B00000006000C000502D8
:084010000401B41400000000DB
:0440180038500B0011
:10401C00034613F8012B002AFBD1181A01387047FC
:10402C0009480A49884208B505D0094A824202D09B
:10403C00121A00F051FF0748074A0021121A00F02B
:10404C0059FF014808BD00BF38E6032078520B0029
:10405C00A8E60320A8E60320F0E7032070B5074E7E
:10406C00074C00F001FEA41BA4080025AC4200D1B3
:10407C0070BD56F8043B98470135F7E730520B00FA
:10408C0054520B0000F013B808B500F02BF8BDE843
:10409C00084000F0A1BD00F009BA00F00FBA00789A
:1040AC00B0FA80F04009704701230370704708B5DF
:1040BC000021132000F048FE0121042000F044FEF2
:1040CC000121052000F040FE0121062000F03CFEFD
:1040DC000121072000F038FEBDE80840012108202E
:1040EC0000F032BE37B5132000F058FE154C164DBB
:1040FC0023688342D4BF23602060132000F04EFE5F
:10410C002B688342ACBF2B602860132000F046FE66
:10411C00092300932A682168042300F0E7F984B28C
:10412C002046012100F021FE601E002180B200F02B
:10413C001CFE601C002180B203B0BDE8304000F0D2
:10414C0014BE00BF38E60320B4E6032010B5074BBD
:10415C00074A9A600024C3E90044032000F01AF9CE
:10416C0021460120BDE8104000F01CB9A8E6032050
:10417C000000FFFF08B5024B1B685B6C019308BD88
:10418C004802030008B5024B1B685B68019308BD2D
:10419C001802030008B5024B1B685B69019308BD4C
:1041AC001802030008B5024B1B685B68019308BD3D
:1041BC002C02030008B5024B1B689B68019308BDD9
:1041CC002C02030008B5024B1B68DB68019308BD89
:1041DC002C02030008B5024B1B681B69019308BD38
:1041EC002C02030008B5024B1B681B6B019308BD26
:1041FC002C02030008B5024B1B681B6A019308BD17
:10420C002802030008B5024B1B685B6A019308BDCA
:10421C002802030008B5024B1B689B6A019308BD7A
:10422C002802030008B5024B1B68DB6A019308BD2A
:10423C002802030008B5024B1B681B6B019308BDD9
:10424C002802030008B5024B1B685B6B019308BD89
:10425C002802030008B5024B1B681B6C019308BDB8
:10426C002802030008B5024B1B685B69019308BD6B
:10427C006402030008B5024B1B689B68019308BDE0
:10428C006802030008B5024B1B68DB68019308BD8C
:10429C006802030008B5024B1B68DB69019308BD7B
:1042AC003002030008B5024B1B681B6A019308BD62
:1042BC003002030008B5024B1B68DB68019308BD94
:1042CC003C02030008B5024B1B681B69019308BD37
:1042DC003C02030008B5024B1B685B69019308BDE7
:1042EC003C02030008B5024B1B689B69019308BD97
:1042FC003C02030008B5024B1B68DB69019308BD47
:10430C003C02030008B5024B1B681B6A019308BDF5
:10431C003C02030008B5024B1B689B6A019308BD65
:10432C003C02030008B5024B1B681B6C019308BDD3
:10433C003C02030008B5024B1B681B68019308BDC7
:10434C004C02030008B5024B1B681B69019308BDA6
:10435C004C02030008B5024B1B685B69019308BD56
:10436C004C02030008B5024B1B689B69019308BD06
:10437C004C02030008B5024B1B68DB69019308BDB6
:10438C004C02030008B5024B1B681B6A019308BD65
:10439C004C02030008B5024B1B685B68019308BD17
:1043AC002002030008B5024B1B68DB6A019308BDB1
:1043BC002002030008B5034B1B68D3F88830019327
:1043CC0008BD00002002030008B5034B1B68D3F89E
:1043DC009430019308BD00002002030008B5024B85
:1043EC001B68DB6B019308BD4402030008B5024B4C
:1043FC001B685B68019308BD4002030008B5024BC3
:10440C001B689B68019308BD4002030008B5024B72
:10441C001B68DB68019308BD4002030008B5024B22
:10442C001B681B69019308BD4002030008B5024BD1
:10443C001B685B69019308BD4002030008B5024B81
:10444C001B689B69019308BD4002030008B5024B31
:10445C001B68DB69019308BD4002030008B5024BE1
:10446C001B681B6A019308BD4002030008B5024B90
:10447C001B681B6B019308BD4002030008B5024B7F
:10448C001B685B6B019308BD4002030008B5024B2F
:10449C001B681B6C019308BD4002030008B5024B5E
:1044AC001B685B6C019308BD4002030008B5024B0E
:1044BC001B681B68019308BD1C02030008B5024B66
:1044CC001B685B68019308BD1C02030008B5024B16
:1044DC001B681B6C019308BD1C02030008B5024B42
:1044EC001B685B6C019308BD1C0203008A4210B56B
:1044FC0007D0441A0298C01A4443501A94FBF0F0A7
:10450C00184410BD024800230360FFF733BE00BF00
:10451C00B8E60320002240681146FFF79FBF002237
:10452C0040681146FFF7AABF40680022FFF79EBF04
:10453C004068002281F00101FFF788BF002340682A
:10454C001A461946FFF77ABF002340681A461946E7
:10455C00FFF76CBF002240681146FFF75FBF0022D7
:10456C0040681146FFF74ABF406800220221FFF75E
:10457C004DBF002340681A46FFF738BF024B032299
:10458C005A60024A1A607047BCE6032054500B0074
:10459C007047F8B5064615460C468F18BC4206D037
:1045AC00336814F8011B9B6830469847F6E7284699
:1045BC00F8BD007C0022FFF71DBE007C0021FFF738
:1045CC0021BE007C0021FFF725BE007C0021FFF7F7
:1045DC0029BE007C0021FFF72DBE10B51421044626
:1045EC00FFF75BFD204610BD38B5044615464FF469
:1045FC007A730022C4E90123094B21740846236015
:10460C002946FFF727FEBF3008D16B69DB0705D5BC
:10461C006868FFF753FFE868FFF750FF204638BD86
:10462C0090500B00704710B518210446FFF735FD6C
:10463C00204610BDF0B5037D062B8DB00E4600F163
:10464C0004074FF0000412D000F1080515F8011D05
:10465C000A22304600F043F9AF42044419D0002C32
:10466C00F4D02E21304600F037F90444EEE72F2326
:10467C006A4639460A208DF80040FFF7F3FD68467C
:10468C00FFF7C6FC33680246DB686946304698473C
:10469C00044620460DB0F0BD10B5054B0446112262
:1046AC0040F8043B002100F025FC204610BD00BF63
:1046BC00B8500B000346074A10B543F8042B01F120
:1046CC00100251F8044B43F8044B9142F9D10A788B
:1046DC001A7010BDB8500B0010B59DF8084044EA94
:1046EC00032343EA024242EA016104234160037559
:1046FC0010BD000007B5064B0360CB7800938B7898
:10470C004A780978FFF7E8FF03B05DF804FB00BFB7
:10471C00B8500B00014B024A1A607047C4E60320E4
:10472C00C4500B00002340681A46FFF75FBE406878
:10473C0000220221FFF76ABE002240681146FFF7F3
:10474C005DBE002240681146FFF768BE002340683A
:10475C001A461946FFF76ABE002340681A461946E6
:10476C00FFF76CBE40680021FFF790BE4068002147
:10477C00FFF794BE4068002281F00101FFF766BE8E
:10478C0040680022FFF772BE002240681146FFF716
:10479C0075BE002240681146FFF760BE2DE9F0435C
:1047AC0095B014460D460746FFF776FF00211C22F4
:1047BC000DA8009100F09EFB40230C9320466B4605
:1047CC000CAA0021FFF75EFD044600284BD10246DF
:1047DC0001216868FFF722FE0221804622466868A4
:1047EC00FFF71CFE009E81462146002E3BD000297F
:1047FC0039D17368022B03D00A2B11D0F669F4E778
:10480C00B8F1000FFAD0716906A8043107ADFFF7B3
:10481C0071FF0FCD3C1D0FC42B6823704146EDE793
:10482C00B9F1000FEAD07469102201A800F062FB04
:10483C0006238DF8143001AD04F108031834186800
:10484C0059682A4603C20833A3421546F7D101A979
:10485C0006A807ADFFF72EFF0FCD3C1D0FC42B682C
:10486C0023704946CAE70098FFF704FD384615B097
:10487C00BDE8F083024B034A1A6000225A6070476D
:10488C00C8E60320D0500B00F8B506460D468F182D
:10489C000024BD420CD0336815F8011B9B683046D0
:1048AC009847031E01DB1C44F3E7002C08BF1C4691
:1048BC002046F8BD13B50446084659B10191FFF7DF
:1048CC00A7FB23680199DB680246204602B0BDE8CD
:1048DC001040184702B010BD03689B68184730B5EC
:1048EC008BB00023012A8DF8243098BF0A2209AC22
:1048FC000D46B1FBF2F101FB125303F0FF03092B40
:10490C0094BF30333733DBB2AA4204F8013DEFD900
:10491C002146FFF7CFFF0BB030BD0000014B00224A
:10492C009A607047D0E6032010B504460846217003
:10493C00FFF7B0FC00236360204610BD054B02223C
:10494C001A60054B054A9A600020C3E90000FFF786
:10495C0021BD00BFECE60320E0E603200000FFFFD2
:10496C00024B1A68024B1A60704700BF3CE60320EA
:10497C00F0E6032070474174704708B5007CFFF7E0
:10498C00C9FC20EAE07008BD08B5007CFFF79AFC72
:10499C0020EAE07008BD08B5007CFFF7A3FC40EAF4
:1049AC00E07008BD08B5007CFFF794FC40EAE070AD
:1049BC0008BD007CFFF79EBC37B5457C04462DB185
:1049CC00207C03B0BDE83040FFF774BC007C019143
:1049DC00FFF7A0FC00280199F2DC284603B030BD9B
:1049EC0010B514210446FFF758FB204610BD0000FB
:1049FC0010B54FF47A730446084611460022C4E9F8
:104A0C000123044B2360012320746374FFF78AFC99
:104A1C00204610BD28510B004174704770477047F9
:104A2C0008B50021007CFFF79DFC40EAE07008BD52
:104A3C0008B50121007CFFF795FC40EAE07008BD49
:104A4C0008B5007CFFF786FC20EAE07008BD08B5CD
:104A5C00007CFFF777FC20EAE07008BD13B5044634
:104A6C00007C0191FFF776FC0028019901DC607C49
:104A7C0020B1207CFFF77EFC20EAE07002B010BD74
:104A8C00007CFFF77FBC10B514210446FFF705FB33
:104A9C00204610BD10B54FF47A7304460846002129
:104AAC00C4E90113044B2360012320746374114681
:104ABC00FFF740FC204610BD58510B0010B51422D6
:104ACC000446002100F016FA204610BD10B50F4C1C
:104ADC0088B003A8FFF7F2FF2178BFF35B8F11F0CA
:104AEC0001010FD120460191FFF7D9FA019948B184
:104AFC0003AA0748FFF7CEFF2046FFF7D5FA054873
:104B0C0000F0E4F9024808B010BD00BFF4E6032041
:104B1C00F8E60320294A0B00002240681146FFF7F3
:104B2C007DBC002240681146FFF798BC002240680B
:104B3C001146FFF7A3BC40680022FFF797BC406802
:104B4C00002281F00101FFF781BC002340681A4666
:104B5C001946FFF773BC002340681A461946FFF745
:104B6C0065BC002240681146FFF748BC4068002233
:104B7C000221FFF74BBC002340681A46FFF736BCF6
:104B8C00024B04225A60024A1A6070470CE7032059
:104B9C0088510B00014B1860704700BF40E60320A2
:104BAC0008B50B4B43B1FFF791FF03681B6998479E
:104BBC00002801DDAFF30080064B43B100F060F933
:104BCC0003681B699847002801DDAFF3008008BD1E
:104BDC00000000000000000008B5FFF7E1FFFFF740
:104BEC00D9FA014B186008BD28E703200548064A8E
:104BFC00064908B5121A00F06FF9054B054A1A6000
:104C0C0008BD00BF00F4032004F40320E8520B009D
:104C1C0000F403201E1C279A07B5002300931A46A4
:104C2C006FF07701FFF7D0FB03B05DF804FB0000D9
:104C3C0007B543880A2B08D0502B0BD1094B1B68A6
:104C4C004BB103B05DF804EB1847FFF7E5FF03B079
:104C5C005DF804FB002300931A466FF07701FFF711
:104C6C00B3FBF4E718E7032010B512480021FFF757
:104C7C0035FC114B1A68114B9A42114B0CBF012297
:104C8C0000221A7001D0FFF7B1FFFFF77BFA044640
:104C9C0000F038F90B4B13B12046AFF30080002124
:104CAC000848FFF79BFBBDE8104007480021FFF7C1
:104CBC0081BB00BFA14B0B0000F403201E1C279AE4
:104CCC0014E70320000000003D4C0B00232813B513
:104CDC0002D9002002B010BDA0F10B03022B1AD890
:104CEC00174C2178BFF35B8F11F001010BD12046DB
:104CFC000191FFF7D4F9019928B11248FFF714FE7E
:104D0C002046FFF7D1F90F4B1878FFF7CBFA0028A4
:104D1C00DFD10120DEE7012809D800F071F800216D
:104D2C00007CFFF78FFA80F00100C0B2D2E709389F
:104D3C000128EED800F0A4F8007CFFF7E3FAF2E7C4
:104D4C001CE7032020E70320232838B504460D4632
:104D5C000AD8FF2908D0FFF7B9FF28B12946204609
:104D6C00BDE83840FFF726BA38BD38B504460D46C5
:104D7C00FFF728FAFF2810D0062804D84D2323FA71
:104D8C0000F0C30709D42046FFF7A0FF28B129463D
:104D9C002046BDE83840FFF71DBA38BD0D2810B5C8
:104DAC0004469CBF0E34A4B22046FFF78FFF50B1CF
:104DBC0003212046FFF7F6F9032804D12046BDE86D
:104DCC001040FFF70FBA002010BD704738B50A4BE2
:104DDC0003600123044643610849202000F074F865
:104DEC00202560600549A560284600F06DF8C4E9EF
:104DFC000305204638BD00BF18000100BC510B0054
:104E0C0030B50E4D2978BFF35B8F11F0010487B0DC
:104E1C0011D12846FFF743F968B16846FFF7D6FF72
:104E2C006A4621460648FFF7DFFB2846FFF73CF9A8
:104E3C00044800F04BF8024807B030BD2CE70320C3
:104E4C0030E70320D74D0B007047000038B50446FF
:104E5C0014252A46002100F04DF8258040250749ED
:104E6C0025812846258200F02FF8044960602846E9
:104E7C0000F02AF8E060204638BD00BFBC510B00A2
:104E8C0030B50E4D2978BFF35B8F11F0010487B05C
:104E9C0011D12846FFF703F968B101A8FFF7D6FF37
:104EAC0001AA21460648FFF7A3FD2846FFF7FCF8A8
:104EBC00044800F00BF8024807B030BD44E703206B
:104ECC0048E70320554E0B00FFF7E5B800230146D9
:104EDC001A46184600F044B80A44914200F1FF33D8
:104EEC0000D1704710B511F8014B03F8014F9142F6
:104EFC00F9D110BD02440346934200D1704703F828
:104F0C00011BF9E738B5104B1D68AB6B0446B3B900
:104F1C001820FFF7CBFA0246A86320B90B4B0C48BC
:104F2C004221FFF7D3FA0B490B4BC0E900130B4B93
:104F3C0083600B23838100210120C2E90401AB6B48
:104F4C0000221C615A6138BD40E60320BD510B00A4
:104F5C00D4510B000E33CDAB34126DE6ECDE0500F4
:104F6C002DE9F843DFF8B8800646D8F800001F4654
:104F7C000D46914600F056F8254B1C6834B9254C6B
:104F8C001C60254B13B11B68C4F8883063681F2B59
:104F9C0007DDD8F8000000F047F84FF0FF30BDE80F
:104FAC00F8834EB3D4F8880088B91C4B23B9D8F8D1
:104FBC00000000F038F8F0E74FF48470FFF776FA51
:104FCC000028F4D00023C0E94033C4F8880063689B
:104FDC0040F8239001229A4000EB8301D0F8003175
:104FEC001343C0F80031022EC1F8807002BFD0F814
:104FFC0004311343C0F804316368D8F800005A1C1C
:10500C000233626044F8235000F00EF80020C6E72B
:10501C00E8E703205CE7032000000000B9440B0024
:10502C00A4E6032070477047704700002D400B002A
:10503C0069400B0091400B0095400B0000000000F4
:10504C0000000000000000007F450B0075450B00C0
:10505C006B450B0061450B0055450B0049450B009A
:10506C0071470B0079470B003D450B0035450B0094
:10507C002B450B0021450B00A9470B00000000003D
:10508C00000000009D450B00E7450B00BF450B00E1
:10509C009F450B00C7450B00CF450B00D7450B00B8
:1050AC00DF450B00000000000000000041460B0033
:1050BC0031460B0033460B0061707000000000009D
:1050CC000000000031470B003B470B0045470B002D
:1050DC004F470B0059470B0065470B0071470B00FE
:1050EC0079470B0081470B008D470B0095470B0050
:1050FC009F470B00A9470B0025592D256D2D2564C5
:10510C005425483A254D3A2553257A00617363742A
:10511C00696D6500000000000000000081490B0073
:10512C00ED490B00C5490B0095480B0095490B0048
:10513C00B1490B00A3490B00BF490B0083490B007D
:10514C0087490B0000000000000000002B4A0B00F8
:10515C00934A0B00694A0B0095480B005B4A0B0005
:10516C002D4A0B003D4A0B008D4A0B004D4A0B009B
:10517C00254A0B000000000000000000834B0B00D0
:10518C00794B0B006F4B0B00254B0B00634B0B004B
:10519C00574B0B0071470B0079470B004B4B0B0027
:1051AC00434B0B00394B0B002F4B0B00A9470B004B
:1051BC00005245454E54206D616C6C6F63207375C5
:1051CC0063636565646564002F746D702F6A656E2A
:1051DC006B696E732D4743432D31302D70697065AB
:1051EC006C696E652D34385F323032303131323487
:1051FC005F313630363138303633392F7372632F96
:10520C006E65776C69622F6E65776C69622F6C695D
:10521C0062632F7374646C69622F72616E642E63A7
:10522C000000000059410B0011450B0089450B0093
:10523C0021470B0081480B0029490B0049490B0001
:08524C006D490B008D4B0B00B6
:10525400040000001400000003000000474E550045
:10526400FA6814F22E57FAF94B4BD53A2FB9A062CB
:045274008AC76B94E6
:10527800FF0F000018510B0044E603200000000057
:105288000000000000000000000000000000000016
:105298000000000000000000000000000000000006
:1052A80000000000000000000000000000000000F6
:1052B80000000000000000000000000000000000E6
:1052C80000000000000000000000000000000000D6
:1052D800000000000000000000000000ECE70320D0
:0452E80000000000C2
:1052F20000000102030405060708090A0B0C0D0E43
:105302000F101112131415161718191A1B1C1D1E33
:045312001F20280030
:04531600785634127F
:04000003B000401CED
:00000001FF
